{
  "contractName": "AVL",
  "abi": [
    {
      "constant": true,
      "inputs": [
        {
          "name": "n",
          "type": "uint256"
        }
      ],
      "name": "height",
      "outputs": [
        {
          "name": "r",
          "type": "uint256"
        }
      ],
      "payable": false,
      "stateMutability": "view",
      "type": "function"
    },
    {
      "constant": true,
      "inputs": [
        {
          "name": "a",
          "type": "uint256"
        },
        {
          "name": "b",
          "type": "uint256"
        }
      ],
      "name": "max",
      "outputs": [
        {
          "name": "r",
          "type": "uint256"
        }
      ],
      "payable": false,
      "stateMutability": "view",
      "type": "function"
    },
    {
      "constant": false,
      "inputs": [
        {
          "name": "k2",
          "type": "uint256"
        }
      ],
      "name": "leftleftrotation",
      "outputs": [
        {
          "name": "r",
          "type": "uint256"
        }
      ],
      "payable": false,
      "stateMutability": "nonpayable",
      "type": "function"
    },
    {
      "constant": false,
      "inputs": [
        {
          "name": "k1",
          "type": "uint256"
        }
      ],
      "name": "rightrightrotation",
      "outputs": [
        {
          "name": "r",
          "type": "uint256"
        }
      ],
      "payable": false,
      "stateMutability": "nonpayable",
      "type": "function"
    },
    {
      "constant": false,
      "inputs": [
        {
          "name": "k3",
          "type": "uint256"
        }
      ],
      "name": "leftrightrotation",
      "outputs": [
        {
          "name": "r",
          "type": "uint256"
        }
      ],
      "payable": false,
      "stateMutability": "nonpayable",
      "type": "function"
    },
    {
      "constant": false,
      "inputs": [
        {
          "name": "k1",
          "type": "uint256"
        }
      ],
      "name": "rightleftrotation",
      "outputs": [
        {
          "name": "r",
          "type": "uint256"
        }
      ],
      "payable": false,
      "stateMutability": "nonpayable",
      "type": "function"
    },
    {
      "constant": false,
      "inputs": [
        {
          "name": "key",
          "type": "uint256"
        }
      ],
      "name": "insert",
      "outputs": [
        {
          "name": "r",
          "type": "uint256"
        }
      ],
      "payable": false,
      "stateMutability": "nonpayable",
      "type": "function"
    },
    {
      "constant": false,
      "inputs": [
        {
          "name": "keys",
          "type": "uint256[]"
        }
      ],
      "name": "insertlist",
      "outputs": [],
      "payable": false,
      "stateMutability": "nonpayable",
      "type": "function"
    }
  ],
  "bytecode": "0x60606040526000600155341561001457600080fd5b6108fa806100236000396000f30060606040526004361061008e576000357c0100000000000000000000000000000000000000000000000000000000900463ffffffff1680630c27dd38146100935780636d5433e6146100ca5780636e0a287b1461010a57806390b5561d1461014157806394bd83da14610178578063c32dc30b146101af578063f0fa16b7146101e6578063f32360ad14610240575b600080fd5b341561009e57600080fd5b6100b46004808035906020019091905050610277565b6040518082815260200191505060405180910390f35b34156100d557600080fd5b6100f460048080359060200190919080359060200190919050506102a8565b6040518082815260200191505060405180910390f35b341561011557600080fd5b61012b60048080359060200190919050506102c4565b6040518082815260200191505060405180910390f35b341561014c57600080fd5b610162600480803590602001909190505061030d565b6040518082815260200191505060405180910390f35b341561018357600080fd5b610199600480803590602001909190505061032b565b6040518082815260200191505060405180910390f35b34156101ba57600080fd5b6101d06004808035906020019091905050610458565b6040518082815260200191505060405180910390f35b34156101f157600080fd5b61023e6004808035906020019082018035906020019080806020026020016040519081016040528093929190818152602001838360200280828437820191505050505050919050506104a1565b005b341561024b57600080fd5b61026160048080359060200190919050506104ea565b6040518082815260200191505060405180910390f35b60008082141561028a57600090506102a3565b6000808381526020019081526020016000206003015490505b919050565b6000818311156102ba578290506102be565b8190505b92915050565b60006102e4600080848152602001908152602001600020600201546104ea565b600080848152602001908152602001600020600201819055506103068261032b565b9050919050565b600061031b60015483610617565b6001819055506001549050919050565b6000806000808481526020019081526020016000206002015490506000808281526020019081526020016000206001015460008085815260200190815260200160002060020181905550826000808381526020019081526020016000206001018190555060016103d56103b260008087815260200190815260200160002060010154610277565b6103d060008088815260200190815260200160002060020154610277565b6102a8565b0160008085815260200190815260200160002060030181905550600161043561041260008085815260200190815260200160002060020154610277565b61043060008086815260200190815260200160002060010154610277565b6102a8565b016000808381526020019081526020016000206003018190555080915050919050565b60006104786000808481526020019081526020016000206001015461032b565b6000808481526020019081526020016000206001018190555061049a826104ea565b9050919050565b60008090505b81518110156104e6576104d360015483838151811015156104c457fe5b90602001906020020151610617565b60018190555080806001019150506104a7565b5050565b60008060008084815260200190815260200160002060010154905060008082815260200190815260200160002060020154600080858152602001908152602001600020600101819055508260008083815260200190815260200160002060020181905550600161059461057160008087815260200190815260200160002060010154610277565b61058f60008088815260200190815260200160002060020154610277565b6102a8565b016000808581526020019081526020016000206003018190555060016105f46105d160008085815260200190815260200160002060010154610277565b6105ef60008086815260200190815260200160002060020154610277565b6102a8565b016000808381526020019081526020016000206003018190555080915050919050565b60008083141561068b578192506080604051908101604052808381526020016000815260200160008152602001600081525060008085815260200190815260200160002060008201518160000155602082015181600101556040820151816002015560608201518160030155905050610865565b60008084815260200190815260200160002060000154821015610779576106c76000808581526020019081526020016000206001015483610617565b60008085815260200190815260200160002060010181905550600261070060008086815260200190815260200160002060020154610277565b61071e60008087815260200190815260200160002060010154610277565b031415610774576000808060008681526020019081526020016000206001015481526020019081526020016000206000015482101561076757610760836104ea565b9250610773565b61077083610458565b92505b5b610864565b60008084815260200190815260200160002060000154821115610863576107b56000808581526020019081526020016000206002015483610617565b6000808581526020019081526020016000206002018190555060026107ee60008086815260200190815260200160002060010154610277565b61080c60008087815260200190815260200160002060020154610277565b03141561086257600080806000868152602001908152602001600020600201548152602001908152602001600020600001548211156108555761084e8361032b565b9250610861565b61085e836102c4565b92505b5b5b5b5b60016108ab61088860008087815260200190815260200160002060010154610277565b6108a660008088815260200190815260200160002060020154610277565b6102a8565b0160008085815260200190815260200160002060030181905550829050929150505600a165627a7a72305820aa43d74d7b90ed94e404e2621044a7f03f0fbb690e5281cae74382e9d7597f7e0029",
  "source": "pragma solidity ^0.4.0;\r\n\r\ncontract AVL{\r\n    struct node{\r\n        uint key;\r\n        uint left;\r\n        uint right;\r\n        uint height;\r\n    }\r\n    mapping(uint => node) nodes;\r\n    uint root=0;\r\n    \r\n    function height(uint n)public constant returns (uint r){\r\n        if(n == 0){\r\n            return 0;\r\n        }else{\r\n            return nodes[n].height;\r\n        }\r\n    }\r\n    \r\n    function max(uint a,uint b)public constant returns(uint r){\r\n        if(a > b)\r\n        return a;\r\n        else \r\n        return b;\r\n    }\r\n    \r\n    function leftleftrotation(uint k2) public returns(uint r){\r\n        uint k1;\r\n        k1 = nodes[k2].left;\r\n        nodes[k2].left = nodes[k1].right;\r\n        nodes[k1].right = k2;\r\n        \r\n        nodes[k2].height = max(height(nodes[k2].left),height(nodes[k2].right))+1;\r\n        nodes[k1].height = max(height(nodes[k1].left),height(nodes[k1].right))+1;\r\n        return k1;\r\n    }\r\n    \r\n    function rightrightrotation(uint k1)public returns(uint r){\r\n        uint k2;\r\n        k2 = nodes[k1].right;\r\n        nodes[k1].right = nodes[k2].left;\r\n        nodes[k2].left = k1;\r\n        \r\n        nodes[k1].height = max(height(nodes[k1].left),height(nodes[k1].right))+1;\r\n        nodes[k2].height = max(height(nodes[k2].right),height(nodes[k2].left))+1;\r\n        return k2;\r\n    }\r\n    \r\n    function leftrightrotation(uint k3)public returns(uint r){\r\n        nodes[k3].left = rightrightrotation(nodes[k3].left);\r\n        return leftleftrotation(k3);\r\n    }\r\n    \r\n    function rightleftrotation(uint k1)public returns(uint r){\r\n        nodes[k1].right = leftleftrotation(nodes[k1].right);\r\n        return rightrightrotation(k1);\r\n    }\r\n    \r\n    \r\n    function _insert(uint n,uint key)internal returns(uint r){\r\n        if(n==0){\r\n            n = key;\r\n            nodes[n] = node(key,0,0,0);\r\n        }\r\n        else{\r\n            if(key < nodes[n].key){\r\n                nodes[n].left = _insert(nodes[n].left,key);\r\n                \r\n                if(height(nodes[n].left)-height(nodes[n].right)==2){\r\n                    if(key < nodes[nodes[n].left].key){\r\n                        n = leftleftrotation(n);\r\n                    }else{\r\n                        n = leftrightrotation(n);\r\n                    }\r\n                }\r\n                \r\n            }\r\n            else if(key > nodes[n].key){\r\n                nodes[n].right = _insert(nodes[n].right,key);\r\n                \r\n                if(height(nodes[n].right)-height(nodes[n].left)==2){\r\n                    if(key > nodes[nodes[n].right].key){\r\n                        n = rightrightrotation(n);\r\n                    }else{\r\n                        n = rightleftrotation(n);\r\n                    }\r\n                }\r\n            }\r\n        }\r\n        nodes[n].height = max(height(nodes[n].left),height(nodes[n].right))+1;\r\n        return n;\r\n    }\r\n    function insert(uint key)public returns(uint r){\r\n        root = _insert(root,key);\r\n        return root;\r\n    }\r\n    function insertlist(uint[] keys)public{\r\n        for(uint i=0;i<keys.length;i++){\r\n            root = _insert(root,keys[i]);\r\n        }\r\n    }\r\n}\r\n",
  "sourcePath": "/home/sean/Dapp/AVL/contracts/AVL.sol",
  "compiler": {
    "name": "solc",
    "version": "0.4.19+commit.c4cbbb05.Emscripten.clang"
  },
  "schemaVersion": "1.0.1",
  "updatedAt": "2018-02-03T12:14:32.405Z"
}